{
  "address": "0xEf7CD11c3Db0bFcE3f07a30A05bEEb916B8E0228",
  "abi": [
    {
      "inputs": [
        {
          "internalType": "uint256",
          "name": "_baseWeightCurrency",
          "type": "uint256"
        },
        {
          "internalType": "contract IJBOperatorStore",
          "name": "_operatorStore",
          "type": "address"
        },
        {
          "internalType": "contract IJBProjects",
          "name": "_projects",
          "type": "address"
        },
        {
          "internalType": "contract IJBDirectory",
          "name": "_directory",
          "type": "address"
        },
        {
          "internalType": "contract IJBSplitsStore",
          "name": "_splitsStore",
          "type": "address"
        },
        {
          "internalType": "contract IJBPrices",
          "name": "_prices",
          "type": "address"
        },
        {
          "internalType": "contract IJBPaymentTerminalStore",
          "name": "_store",
          "type": "address"
        },
        {
          "internalType": "address",
          "name": "_owner",
          "type": "address"
        }
      ],
      "stateMutability": "nonpayable",
      "type": "constructor"
    },
    {
      "inputs": [],
      "name": "FEE_TOO_HIGH",
      "type": "error"
    },
    {
      "inputs": [],
      "name": "INADEQUATE_DISTRIBUTION_AMOUNT",
      "type": "error"
    },
    {
      "inputs": [],
      "name": "INADEQUATE_RECLAIM_AMOUNT",
      "type": "error"
    },
    {
      "inputs": [],
      "name": "INADEQUATE_TOKEN_COUNT",
      "type": "error"
    },
    {
      "inputs": [],
      "name": "NO_MSG_VALUE_ALLOWED",
      "type": "error"
    },
    {
      "inputs": [],
      "name": "PAY_TO_ZERO_ADDRESS",
      "type": "error"
    },
    {
      "inputs": [
        {
          "internalType": "uint256",
          "name": "prod1",
          "type": "uint256"
        },
        {
          "internalType": "uint256",
          "name": "denominator",
          "type": "uint256"
        }
      ],
      "name": "PRBMath__MulDivOverflow",
      "type": "error"
    },
    {
      "inputs": [],
      "name": "PROJECT_TERMINAL_MISMATCH",
      "type": "error"
    },
    {
      "inputs": [],
      "name": "REDEEM_TO_ZERO_ADDRESS",
      "type": "error"
    },
    {
      "inputs": [],
      "name": "TERMINAL_IN_SPLIT_ZERO_ADDRESS",
      "type": "error"
    },
    {
      "inputs": [],
      "name": "TERMINAL_TOKENS_INCOMPATIBLE",
      "type": "error"
    },
    {
      "inputs": [],
      "name": "UNAUTHORIZED",
      "type": "error"
    },
    {
      "anonymous": false,
      "inputs": [
        {
          "indexed": true,
          "internalType": "uint256",
          "name": "projectId",
          "type": "uint256"
        },
        {
          "indexed": false,
          "internalType": "uint256",
          "name": "amount",
          "type": "uint256"
        },
        {
          "indexed": false,
          "internalType": "string",
          "name": "memo",
          "type": "string"
        },
        {
          "indexed": false,
          "internalType": "address",
          "name": "caller",
          "type": "address"
        }
      ],
      "name": "AddToBalance",
      "type": "event"
    },
    {
      "anonymous": false,
      "inputs": [
        {
          "indexed": true,
          "internalType": "contract IJBPayDelegate",
          "name": "delegate",
          "type": "address"
        },
        {
          "components": [
            {
              "internalType": "address",
              "name": "payer",
              "type": "address"
            },
            {
              "internalType": "uint256",
              "name": "projectId",
              "type": "uint256"
            },
            {
              "components": [
                {
                  "internalType": "address",
                  "name": "token",
                  "type": "address"
                },
                {
                  "internalType": "uint256",
                  "name": "value",
                  "type": "uint256"
                },
                {
                  "internalType": "uint256",
                  "name": "decimals",
                  "type": "uint256"
                },
                {
                  "internalType": "uint256",
                  "name": "currency",
                  "type": "uint256"
                }
              ],
              "internalType": "struct JBTokenAmount",
              "name": "amount",
              "type": "tuple"
            },
            {
              "internalType": "uint256",
              "name": "projectTokenCount",
              "type": "uint256"
            },
            {
              "internalType": "address",
              "name": "beneficiary",
              "type": "address"
            },
            {
              "internalType": "string",
              "name": "memo",
              "type": "string"
            },
            {
              "internalType": "bytes",
              "name": "metadata",
              "type": "bytes"
            }
          ],
          "indexed": false,
          "internalType": "struct JBDidPayData",
          "name": "data",
          "type": "tuple"
        },
        {
          "indexed": false,
          "internalType": "address",
          "name": "caller",
          "type": "address"
        }
      ],
      "name": "DelegateDidPay",
      "type": "event"
    },
    {
      "anonymous": false,
      "inputs": [
        {
          "indexed": true,
          "internalType": "contract IJBRedemptionDelegate",
          "name": "delegate",
          "type": "address"
        },
        {
          "components": [
            {
              "internalType": "address",
              "name": "holder",
              "type": "address"
            },
            {
              "internalType": "uint256",
              "name": "projectId",
              "type": "uint256"
            },
            {
              "internalType": "uint256",
              "name": "projectTokenCount",
              "type": "uint256"
            },
            {
              "components": [
                {
                  "internalType": "address",
                  "name": "token",
                  "type": "address"
                },
                {
                  "internalType": "uint256",
                  "name": "value",
                  "type": "uint256"
                },
                {
                  "internalType": "uint256",
                  "name": "decimals",
                  "type": "uint256"
                },
                {
                  "internalType": "uint256",
                  "name": "currency",
                  "type": "uint256"
                }
              ],
              "internalType": "struct JBTokenAmount",
              "name": "reclaimedAmount",
              "type": "tuple"
            },
            {
              "internalType": "address payable",
              "name": "beneficiary",
              "type": "address"
            },
            {
              "internalType": "string",
              "name": "memo",
              "type": "string"
            },
            {
              "internalType": "bytes",
              "name": "metadata",
              "type": "bytes"
            }
          ],
          "indexed": false,
          "internalType": "struct JBDidRedeemData",
          "name": "data",
          "type": "tuple"
        },
        {
          "indexed": false,
          "internalType": "address",
          "name": "caller",
          "type": "address"
        }
      ],
      "name": "DelegateDidRedeem",
      "type": "event"
    },
    {
      "anonymous": false,
      "inputs": [
        {
          "indexed": true,
          "internalType": "uint256",
          "name": "fundingCycleConfiguration",
          "type": "uint256"
        },
        {
          "indexed": true,
          "internalType": "uint256",
          "name": "fundingCycleNumber",
          "type": "uint256"
        },
        {
          "indexed": true,
          "internalType": "uint256",
          "name": "projectId",
          "type": "uint256"
        },
        {
          "indexed": false,
          "internalType": "address",
          "name": "beneficiary",
          "type": "address"
        },
        {
          "indexed": false,
          "internalType": "uint256",
          "name": "amount",
          "type": "uint256"
        },
        {
          "indexed": false,
          "internalType": "uint256",
          "name": "distributedAmount",
          "type": "uint256"
        },
        {
          "indexed": false,
          "internalType": "uint256",
          "name": "fee",
          "type": "uint256"
        },
        {
          "indexed": false,
          "internalType": "uint256",
          "name": "beneficiaryDistributionAmount",
          "type": "uint256"
        },
        {
          "indexed": false,
          "internalType": "string",
          "name": "memo",
          "type": "string"
        },
        {
          "indexed": false,
          "internalType": "address",
          "name": "caller",
          "type": "address"
        }
      ],
      "name": "DistributePayouts",
      "type": "event"
    },
    {
      "anonymous": false,
      "inputs": [
        {
          "indexed": true,
          "internalType": "uint256",
          "name": "fundingCycleConfiguration",
          "type": "uint256"
        },
        {
          "indexed": true,
          "internalType": "uint256",
          "name": "fundingCycleNumber",
          "type": "uint256"
        },
        {
          "indexed": true,
          "internalType": "uint256",
          "name": "projectId",
          "type": "uint256"
        },
        {
          "components": [
            {
              "internalType": "bool",
              "name": "preferClaimed",
              "type": "bool"
            },
            {
              "internalType": "uint256",
              "name": "percent",
              "type": "uint256"
            },
            {
              "internalType": "uint256",
              "name": "projectId",
              "type": "uint256"
            },
            {
              "internalType": "address payable",
              "name": "beneficiary",
              "type": "address"
            },
            {
              "internalType": "uint256",
              "name": "lockedUntil",
              "type": "uint256"
            },
            {
              "internalType": "contract IJBSplitAllocator",
              "name": "allocator",
              "type": "address"
            }
          ],
          "indexed": false,
          "internalType": "struct JBSplit",
          "name": "split",
          "type": "tuple"
        },
        {
          "indexed": false,
          "internalType": "uint256",
          "name": "amount",
          "type": "uint256"
        },
        {
          "indexed": false,
          "internalType": "address",
          "name": "caller",
          "type": "address"
        }
      ],
      "name": "DistributeToPayoutSplit",
      "type": "event"
    },
    {
      "anonymous": false,
      "inputs": [
        {
          "indexed": true,
          "internalType": "uint256",
          "name": "projectId",
          "type": "uint256"
        },
        {
          "indexed": true,
          "internalType": "contract IJBPaymentTerminal",
          "name": "to",
          "type": "address"
        },
        {
          "indexed": false,
          "internalType": "uint256",
          "name": "amount",
          "type": "uint256"
        },
        {
          "indexed": false,
          "internalType": "address",
          "name": "caller",
          "type": "address"
        }
      ],
      "name": "Migrate",
      "type": "event"
    },
    {
      "anonymous": false,
      "inputs": [
        {
          "indexed": true,
          "internalType": "address",
          "name": "previousOwner",
          "type": "address"
        },
        {
          "indexed": true,
          "internalType": "address",
          "name": "newOwner",
          "type": "address"
        }
      ],
      "name": "OwnershipTransferred",
      "type": "event"
    },
    {
      "anonymous": false,
      "inputs": [
        {
          "indexed": true,
          "internalType": "uint256",
          "name": "fundingCycleConfiguration",
          "type": "uint256"
        },
        {
          "indexed": true,
          "internalType": "uint256",
          "name": "fundingCycleNumber",
          "type": "uint256"
        },
        {
          "indexed": true,
          "internalType": "uint256",
          "name": "projectId",
          "type": "uint256"
        },
        {
          "indexed": false,
          "internalType": "address",
          "name": "beneficiary",
          "type": "address"
        },
        {
          "indexed": false,
          "internalType": "uint256",
          "name": "amount",
          "type": "uint256"
        },
        {
          "indexed": false,
          "internalType": "uint256",
          "name": "beneficiaryTokenCount",
          "type": "uint256"
        },
        {
          "indexed": false,
          "internalType": "string",
          "name": "memo",
          "type": "string"
        },
        {
          "indexed": false,
          "internalType": "address",
          "name": "caller",
          "type": "address"
        }
      ],
      "name": "Pay",
      "type": "event"
    },
    {
      "anonymous": false,
      "inputs": [
        {
          "indexed": true,
          "internalType": "uint256",
          "name": "projectId",
          "type": "uint256"
        },
        {
          "components": [
            {
              "internalType": "uint256",
              "name": "amount",
              "type": "uint256"
            },
            {
              "internalType": "uint32",
              "name": "fee",
              "type": "uint32"
            },
            {
              "internalType": "uint32",
              "name": "feeDiscount",
              "type": "uint32"
            },
            {
              "internalType": "address",
              "name": "beneficiary",
              "type": "address"
            }
          ],
          "indexed": false,
          "internalType": "struct JBFee[]",
          "name": "fees",
          "type": "tuple[]"
        },
        {
          "indexed": false,
          "internalType": "address",
          "name": "caller",
          "type": "address"
        }
      ],
      "name": "ProcessFees",
      "type": "event"
    },
    {
      "anonymous": false,
      "inputs": [
        {
          "indexed": true,
          "internalType": "uint256",
          "name": "fundingCycleConfiguration",
          "type": "uint256"
        },
        {
          "indexed": true,
          "internalType": "uint256",
          "name": "fundingCycleNumber",
          "type": "uint256"
        },
        {
          "indexed": true,
          "internalType": "uint256",
          "name": "projectId",
          "type": "uint256"
        },
        {
          "indexed": false,
          "internalType": "address",
          "name": "holder",
          "type": "address"
        },
        {
          "indexed": false,
          "internalType": "address",
          "name": "beneficiary",
          "type": "address"
        },
        {
          "indexed": false,
          "internalType": "uint256",
          "name": "tokenCount",
          "type": "uint256"
        },
        {
          "indexed": false,
          "internalType": "uint256",
          "name": "reclaimedAmount",
          "type": "uint256"
        },
        {
          "indexed": false,
          "internalType": "string",
          "name": "memo",
          "type": "string"
        },
        {
          "indexed": false,
          "internalType": "address",
          "name": "caller",
          "type": "address"
        }
      ],
      "name": "RedeemTokens",
      "type": "event"
    },
    {
      "anonymous": false,
      "inputs": [
        {
          "indexed": false,
          "internalType": "uint256",
          "name": "fee",
          "type": "uint256"
        },
        {
          "indexed": false,
          "internalType": "address",
          "name": "caller",
          "type": "address"
        }
      ],
      "name": "SetFee",
      "type": "event"
    },
    {
      "anonymous": false,
      "inputs": [
        {
          "indexed": true,
          "internalType": "contract IJBFeeGauge",
          "name": "feeGauge",
          "type": "address"
        },
        {
          "indexed": false,
          "internalType": "address",
          "name": "caller",
          "type": "address"
        }
      ],
      "name": "SetFeeGauge",
      "type": "event"
    },
    {
      "anonymous": false,
      "inputs": [
        {
          "indexed": true,
          "internalType": "contract IJBPaymentTerminal",
          "name": "terminal",
          "type": "address"
        },
        {
          "indexed": true,
          "internalType": "bool",
          "name": "flag",
          "type": "bool"
        },
        {
          "indexed": false,
          "internalType": "address",
          "name": "caller",
          "type": "address"
        }
      ],
      "name": "SetFeelessTerminal",
      "type": "event"
    },
    {
      "anonymous": false,
      "inputs": [
        {
          "indexed": true,
          "internalType": "uint256",
          "name": "fundingCycleConfiguration",
          "type": "uint256"
        },
        {
          "indexed": true,
          "internalType": "uint256",
          "name": "fundingCycleNumber",
          "type": "uint256"
        },
        {
          "indexed": true,
          "internalType": "uint256",
          "name": "projectId",
          "type": "uint256"
        },
        {
          "indexed": false,
          "internalType": "address",
          "name": "beneficiary",
          "type": "address"
        },
        {
          "indexed": false,
          "internalType": "uint256",
          "name": "amount",
          "type": "uint256"
        },
        {
          "indexed": false,
          "internalType": "uint256",
          "name": "distributedAmount",
          "type": "uint256"
        },
        {
          "indexed": false,
          "internalType": "uint256",
          "name": "netDistributedamount",
          "type": "uint256"
        },
        {
          "indexed": false,
          "internalType": "string",
          "name": "memo",
          "type": "string"
        },
        {
          "indexed": false,
          "internalType": "address",
          "name": "caller",
          "type": "address"
        }
      ],
      "name": "UseAllowance",
      "type": "event"
    },
    {
      "inputs": [
        {
          "internalType": "uint256",
          "name": "_projectId",
          "type": "uint256"
        },
        {
          "internalType": "uint256",
          "name": "_amount",
          "type": "uint256"
        },
        {
          "internalType": "string",
          "name": "_memo",
          "type": "string"
        }
      ],
      "name": "addToBalanceOf",
      "outputs": [],
      "stateMutability": "payable",
      "type": "function"
    },
    {
      "inputs": [],
      "name": "baseWeightCurrency",
      "outputs": [
        {
          "internalType": "uint256",
          "name": "",
          "type": "uint256"
        }
      ],
      "stateMutability": "view",
      "type": "function"
    },
    {
      "inputs": [],
      "name": "currency",
      "outputs": [
        {
          "internalType": "uint256",
          "name": "",
          "type": "uint256"
        }
      ],
      "stateMutability": "view",
      "type": "function"
    },
    {
      "inputs": [
        {
          "internalType": "uint256",
          "name": "_projectId",
          "type": "uint256"
        }
      ],
      "name": "currentEthOverflowOf",
      "outputs": [
        {
          "internalType": "uint256",
          "name": "",
          "type": "uint256"
        }
      ],
      "stateMutability": "view",
      "type": "function"
    },
    {
      "inputs": [],
      "name": "decimals",
      "outputs": [
        {
          "internalType": "uint256",
          "name": "",
          "type": "uint256"
        }
      ],
      "stateMutability": "view",
      "type": "function"
    },
    {
      "inputs": [],
      "name": "directory",
      "outputs": [
        {
          "internalType": "contract IJBDirectory",
          "name": "",
          "type": "address"
        }
      ],
      "stateMutability": "view",
      "type": "function"
    },
    {
      "inputs": [
        {
          "internalType": "uint256",
          "name": "_projectId",
          "type": "uint256"
        },
        {
          "internalType": "uint256",
          "name": "_amount",
          "type": "uint256"
        },
        {
          "internalType": "uint256",
          "name": "_currency",
          "type": "uint256"
        },
        {
          "internalType": "uint256",
          "name": "_minReturnedTokens",
          "type": "uint256"
        },
        {
          "internalType": "string",
          "name": "_memo",
          "type": "string"
        }
      ],
      "name": "distributePayoutsOf",
      "outputs": [
        {
          "internalType": "uint256",
          "name": "netLeftoverDistributionAmount",
          "type": "uint256"
        }
      ],
      "stateMutability": "nonpayable",
      "type": "function"
    },
    {
      "inputs": [],
      "name": "fee",
      "outputs": [
        {
          "internalType": "uint256",
          "name": "",
          "type": "uint256"
        }
      ],
      "stateMutability": "view",
      "type": "function"
    },
    {
      "inputs": [],
      "name": "feeGauge",
      "outputs": [
        {
          "internalType": "contract IJBFeeGauge",
          "name": "",
          "type": "address"
        }
      ],
      "stateMutability": "view",
      "type": "function"
    },
    {
      "inputs": [
        {
          "internalType": "uint256",
          "name": "_projectId",
          "type": "uint256"
        }
      ],
      "name": "heldFeesOf",
      "outputs": [
        {
          "components": [
            {
              "internalType": "uint256",
              "name": "amount",
              "type": "uint256"
            },
            {
              "internalType": "uint32",
              "name": "fee",
              "type": "uint32"
            },
            {
              "internalType": "uint32",
              "name": "feeDiscount",
              "type": "uint32"
            },
            {
              "internalType": "address",
              "name": "beneficiary",
              "type": "address"
            }
          ],
          "internalType": "struct JBFee[]",
          "name": "",
          "type": "tuple[]"
        }
      ],
      "stateMutability": "view",
      "type": "function"
    },
    {
      "inputs": [
        {
          "internalType": "contract IJBPaymentTerminal",
          "name": "",
          "type": "address"
        }
      ],
      "name": "isFeelessTerminal",
      "outputs": [
        {
          "internalType": "bool",
          "name": "",
          "type": "bool"
        }
      ],
      "stateMutability": "view",
      "type": "function"
    },
    {
      "inputs": [
        {
          "internalType": "uint256",
          "name": "_projectId",
          "type": "uint256"
        },
        {
          "internalType": "contract IJBPaymentTerminal",
          "name": "_to",
          "type": "address"
        }
      ],
      "name": "migrate",
      "outputs": [
        {
          "internalType": "uint256",
          "name": "balance",
          "type": "uint256"
        }
      ],
      "stateMutability": "nonpayable",
      "type": "function"
    },
    {
      "inputs": [],
      "name": "operatorStore",
      "outputs": [
        {
          "internalType": "contract IJBOperatorStore",
          "name": "",
          "type": "address"
        }
      ],
      "stateMutability": "view",
      "type": "function"
    },
    {
      "inputs": [],
      "name": "owner",
      "outputs": [
        {
          "internalType": "address",
          "name": "",
          "type": "address"
        }
      ],
      "stateMutability": "view",
      "type": "function"
    },
    {
      "inputs": [
        {
          "internalType": "uint256",
          "name": "_amount",
          "type": "uint256"
        },
        {
          "internalType": "uint256",
          "name": "_projectId",
          "type": "uint256"
        },
        {
          "internalType": "address",
          "name": "_beneficiary",
          "type": "address"
        },
        {
          "internalType": "uint256",
          "name": "_minReturnedTokens",
          "type": "uint256"
        },
        {
          "internalType": "bool",
          "name": "_preferClaimedTokens",
          "type": "bool"
        },
        {
          "internalType": "string",
          "name": "_memo",
          "type": "string"
        },
        {
          "internalType": "bytes",
          "name": "_metadata",
          "type": "bytes"
        }
      ],
      "name": "pay",
      "outputs": [
        {
          "internalType": "uint256",
          "name": "",
          "type": "uint256"
        }
      ],
      "stateMutability": "payable",
      "type": "function"
    },
    {
      "inputs": [],
      "name": "payoutSplitsGroup",
      "outputs": [
        {
          "internalType": "uint256",
          "name": "",
          "type": "uint256"
        }
      ],
      "stateMutability": "view",
      "type": "function"
    },
    {
      "inputs": [],
      "name": "prices",
      "outputs": [
        {
          "internalType": "contract IJBPrices",
          "name": "",
          "type": "address"
        }
      ],
      "stateMutability": "view",
      "type": "function"
    },
    {
      "inputs": [
        {
          "internalType": "uint256",
          "name": "_projectId",
          "type": "uint256"
        }
      ],
      "name": "processFees",
      "outputs": [],
      "stateMutability": "nonpayable",
      "type": "function"
    },
    {
      "inputs": [],
      "name": "projects",
      "outputs": [
        {
          "internalType": "contract IJBProjects",
          "name": "",
          "type": "address"
        }
      ],
      "stateMutability": "view",
      "type": "function"
    },
    {
      "inputs": [
        {
          "internalType": "address",
          "name": "_holder",
          "type": "address"
        },
        {
          "internalType": "uint256",
          "name": "_projectId",
          "type": "uint256"
        },
        {
          "internalType": "uint256",
          "name": "_tokenCount",
          "type": "uint256"
        },
        {
          "internalType": "uint256",
          "name": "_minReturnedTokens",
          "type": "uint256"
        },
        {
          "internalType": "address payable",
          "name": "_beneficiary",
          "type": "address"
        },
        {
          "internalType": "string",
          "name": "_memo",
          "type": "string"
        },
        {
          "internalType": "bytes",
          "name": "_metadata",
          "type": "bytes"
        }
      ],
      "name": "redeemTokensOf",
      "outputs": [
        {
          "internalType": "uint256",
          "name": "reclaimAmount",
          "type": "uint256"
        }
      ],
      "stateMutability": "nonpayable",
      "type": "function"
    },
    {
      "inputs": [],
      "name": "renounceOwnership",
      "outputs": [],
      "stateMutability": "nonpayable",
      "type": "function"
    },
    {
      "inputs": [
        {
          "internalType": "uint256",
          "name": "_fee",
          "type": "uint256"
        }
      ],
      "name": "setFee",
      "outputs": [],
      "stateMutability": "nonpayable",
      "type": "function"
    },
    {
      "inputs": [
        {
          "internalType": "contract IJBFeeGauge",
          "name": "_feeGauge",
          "type": "address"
        }
      ],
      "name": "setFeeGauge",
      "outputs": [],
      "stateMutability": "nonpayable",
      "type": "function"
    },
    {
      "inputs": [
        {
          "internalType": "contract IJBPaymentTerminal",
          "name": "_terminal",
          "type": "address"
        },
        {
          "internalType": "bool",
          "name": "_flag",
          "type": "bool"
        }
      ],
      "name": "setFeelessTerminal",
      "outputs": [],
      "stateMutability": "nonpayable",
      "type": "function"
    },
    {
      "inputs": [],
      "name": "splitsStore",
      "outputs": [
        {
          "internalType": "contract IJBSplitsStore",
          "name": "",
          "type": "address"
        }
      ],
      "stateMutability": "view",
      "type": "function"
    },
    {
      "inputs": [],
      "name": "store",
      "outputs": [
        {
          "internalType": "contract IJBPaymentTerminalStore",
          "name": "",
          "type": "address"
        }
      ],
      "stateMutability": "view",
      "type": "function"
    },
    {
      "inputs": [],
      "name": "token",
      "outputs": [
        {
          "internalType": "address",
          "name": "",
          "type": "address"
        }
      ],
      "stateMutability": "view",
      "type": "function"
    },
    {
      "inputs": [
        {
          "internalType": "address",
          "name": "newOwner",
          "type": "address"
        }
      ],
      "name": "transferOwnership",
      "outputs": [],
      "stateMutability": "nonpayable",
      "type": "function"
    },
    {
      "inputs": [
        {
          "internalType": "uint256",
          "name": "_projectId",
          "type": "uint256"
        },
        {
          "internalType": "uint256",
          "name": "_amount",
          "type": "uint256"
        },
        {
          "internalType": "uint256",
          "name": "_currency",
          "type": "uint256"
        },
        {
          "internalType": "uint256",
          "name": "_minReturnedTokens",
          "type": "uint256"
        },
        {
          "internalType": "address payable",
          "name": "_beneficiary",
          "type": "address"
        },
        {
          "internalType": "string",
          "name": "_memo",
          "type": "string"
        }
      ],
      "name": "useAllowanceOf",
      "outputs": [
        {
          "internalType": "uint256",
          "name": "netDistributedAmount",
          "type": "uint256"
        }
      ],
      "stateMutability": "nonpayable",
      "type": "function"
    }
  ],
  "transactionHash": "0x996084d423d7e72d9438b68b1d5e1b1652b13ba635be788d61affbaf6ae36b6c",
  "args": [
    "1",
    "0x71B14806AB6452B756267c1cB18fe51B151F47b6",
    "0xe135De15f225A2EA008E0Ca43b2E70BC0302ad90",
    "0x7428Daec6607fE305eb696D6B2A4aA43D347e258",
    "0x86b8833A776139725115623eCE989C51C9E3eEA8",
    "0x0c0360366c957Cbc4cEb1682bbc4f069dBe88867",
    "0x3F75AF855c1A70F37F25E792830c77028656693F",
    "0x95C54D662c31672b2E9C572959AcF93cc883a0A5"
  ],
  "numDeployments": 2,
  "solcInputHash": "0853e5436dac57bfc322d11177fa8b4d",
  "bytecode": "0x6101e060405263017d78406003553480156200001a57600080fd5b5060405162005cf738038062005cf78339810160408190526200003d916200020d565b606087901b6001600160601b03191660805261eeee601260018a818b8b8b8b8b8b8b6200006a33620000e8565b600180556001600160601b031960608d811b8216610140526101608d90526101a08b90526101c08a90526101808c905287811b821660a05286811b821660c05285811b821660e05284811b82166101005283901b1661012052620000ce8162000138565b5050505050505050505050505050505050505050620002d8565b600080546001600160a01b038381166001600160a01b0319831681178455604051919092169283917f8be0079c531659141344cd1fd0a4f28419497f9722a3daafe3b4186f6b6457e09190a35050565b6000546001600160a01b03163314620001985760405162461bcd60e51b815260206004820181905260248201527f4f776e61626c653a2063616c6c6572206973206e6f7420746865206f776e657260448201526064015b60405180910390fd5b6001600160a01b038116620001ff5760405162461bcd60e51b815260206004820152602660248201527f4f776e61626c653a206e6577206f776e657220697320746865207a65726f206160448201526564647265737360d01b60648201526084016200018f565b6200020a81620000e8565b50565b600080600080600080600080610100898b0312156200022b57600080fd5b8851975060208901516200023f81620002c2565b60408a01519097506200025281620002c2565b60608a01519096506200026581620002c2565b60808a01519095506200027881620002c2565b60a08a01519094506200028b81620002c2565b60c08a01519093506200029e81620002c2565b60e08a0151909250620002b181620002c2565b809150509295985092959890939650565b6001600160a01b03811681146200020a57600080fd5b60805160601c60a05160601c60c05160601c60e05160601c6101005160601c6101205160601c6101405160601c61016051610180516101a0516101c051615802620004f56000396000818161032f015281816138810152613a8e01526000818161023701526134200152600081816105dd01528181610c8c01528181611826015281816118a101528181611ce10152818161200d015281816121c301526133bb015260008181610279015281816117c7015281816117f301528181611853015281816118ce01528181611cc001528181611fe7015281816133950152613a620152600081816106710152818161090b01528181610a430152818161128f01528181611a9801528181611fa50152818161280b01528181612f2a015281816130250152818161335301528181613a0501528181613c280152613e25015260008181610457015281816109a601528181610ccc0152818161174701528181611c810152818161220501528181612ba701526133e101526000818161054601526118f40152600081816101d901526138ae015260008181610512015281816111c8015281816119e601528181611e110152818161283801528181612f55015281816135150152613bfb0152600081816103f8015281816107d801528181610bb201528181610dd00152818161138f01526122f20152600081816104be015281816126330152818161270f01528181612d0b0152612de701526158026000f3fe6080604052600436106101c25760003560e01c80638da5cb5b116100f7578063d3419bf311610095578063e5a6b10f11610064578063e5a6b10f146105cb578063e730b26e146105ff578063f2fde38b1461063f578063fc0c546a1461065f57600080fd5b8063d3419bf314610534578063d6dacc5314610568578063d930c60c14610595578063ddca3f43146105b557600080fd5b8063abe151b7116100d1578063abe151b714610499578063ad007d63146104ac578063b6cf978e146104e0578063c41c2f241461050057600080fd5b80638da5cb5b1461041a578063975057e714610445578063a32e1e961461047957600080fd5b806366248b861161016457806384a2aacd1161013e57806384a2aacd1461038657806389701db5146103995780638af56094146103b95780638b79543c146103e657600080fd5b806366248b861461031d57806369fe0e2d14610351578063715018a61461037157600080fd5b80633b7be7ea116101a05780633b7be7ea1461029b578063405b84fa146102bd5780634ee9c559146102dd578063637913ac146102fd57600080fd5b80632bdfe004146101c75780632d1a590314610225578063313ce56714610267575b600080fd5b3480156101d357600080fd5b506101fb7f000000000000000000000000000000000000000000000000000000000000000081565b60405173ffffffffffffffffffffffffffffffffffffffff90911681526020015b60405180910390f35b34801561023157600080fd5b506102597f000000000000000000000000000000000000000000000000000000000000000081565b60405190815260200161021c565b34801561027357600080fd5b506102597f000000000000000000000000000000000000000000000000000000000000000081565b3480156102a757600080fd5b506102bb6102b6366004614a50565b610693565b005b3480156102c957600080fd5b506102596102d8366004614b5a565b6107a6565b3480156102e957600080fd5b506102596102f8366004614c86565b610b80565b34801561030957600080fd5b506102bb61031836600461482c565b610f0b565b34801561032957600080fd5b506102597f000000000000000000000000000000000000000000000000000000000000000081565b34801561035d57600080fd5b506102bb61036c366004614b28565b611005565b34801561037d57600080fd5b506102bb611104565b6102bb610394366004614c33565b611191565b3480156103a557600080fd5b506102bb6103b4366004614b28565b611360565b3480156103c557600080fd5b506103d96103d4366004614b28565b611639565b60405161021c919061520f565b3480156103f257600080fd5b506101fb7f000000000000000000000000000000000000000000000000000000000000000081565b34801561042657600080fd5b5060005473ffffffffffffffffffffffffffffffffffffffff166101fb565b34801561045157600080fd5b506101fb7f000000000000000000000000000000000000000000000000000000000000000081565b34801561048557600080fd5b50610259610494366004614b28565b6116f8565b6102596104a7366004614b7f565b611997565b3480156104b857600080fd5b506101fb7f000000000000000000000000000000000000000000000000000000000000000081565b3480156104ec57600080fd5b506102596104fb366004614866565b611bba565b34801561050c57600080fd5b506101fb7f000000000000000000000000000000000000000000000000000000000000000081565b34801561054057600080fd5b506101fb7f000000000000000000000000000000000000000000000000000000000000000081565b34801561057457600080fd5b506004546101fb9073ffffffffffffffffffffffffffffffffffffffff1681565b3480156105a157600080fd5b506102596105b0366004614cfb565b612186565b3480156105c157600080fd5b5061025960035481565b3480156105d757600080fd5b506102597f000000000000000000000000000000000000000000000000000000000000000081565b34801561060b57600080fd5b5061062f61061a36600461482c565b60056020526000908152604090205460ff1681565b604051901515815260200161021c565b34801561064b57600080fd5b506102bb61065a36600461482c565b612489565b34801561066b57600080fd5b506101fb7f000000000000000000000000000000000000000000000000000000000000000081565b60005473ffffffffffffffffffffffffffffffffffffffff163314610719576040517f08c379a000000000000000000000000000000000000000000000000000000000815260206004820181905260248201527f4f776e61626c653a2063616c6c6572206973206e6f7420746865206f776e657260448201526064015b60405180910390fd5b73ffffffffffffffffffffffffffffffffffffffff821660008181526005602090815260409182902080547fffffffffffffffffffffffffffffffffffffffffffffffffffffffffffffff001685151590811790915591513381529192917ff870dc5d3fb30dcc6e5588de75dfd6a15c777db0fb8266158702569c081eef35910160405180910390a35050565b6040517f6352211e000000000000000000000000000000000000000000000000000000008152600481018390526000907f000000000000000000000000000000000000000000000000000000000000000073ffffffffffffffffffffffffffffffffffffffff1690636352211e9060240160206040518083038186803b15801561082f57600080fd5b505afa158015610843573d6000803e3d6000fd5b505050506040513d601f19601f820116820180604052508101906108679190614849565b8360046108758383836125b9565b8473ffffffffffffffffffffffffffffffffffffffff1663fc0c546a6040518163ffffffff1660e01b815260040160206040518083038186803b1580156108bb57600080fd5b505afa1580156108cf573d6000803e3d6000fd5b505050506040513d601f19601f820116820180604052508101906108f39190614849565b73ffffffffffffffffffffffffffffffffffffffff167f000000000000000000000000000000000000000000000000000000000000000073ffffffffffffffffffffffffffffffffffffffff1614610977576040517f581010ed00000000000000000000000000000000000000000000000000000000815260040160405180910390fd5b6040517f6bb6a5ad000000000000000000000000000000000000000000000000000000008152600481018790527f000000000000000000000000000000000000000000000000000000000000000073ffffffffffffffffffffffffffffffffffffffff1690636bb6a5ad90602401602060405180830381600087803b1580156109ff57600080fd5b505af1158015610a13573d6000803e3d6000fd5b505050506040513d601f19601f82011682018060405250810190610a379190614b41565b93508315610b255760007f000000000000000000000000000000000000000000000000000000000000000073ffffffffffffffffffffffffffffffffffffffff1661eeee14610a87576000610a89565b845b6040517f84a2aacd0000000000000000000000000000000000000000000000000000000081526004810189905260248101879052606060448201526000606482015290915073ffffffffffffffffffffffffffffffffffffffff8716906384a2aacd9083906084016000604051808303818588803b158015610b0a57600080fd5b505af1158015610b1e573d6000803e3d6000fd5b5050505050505b6040805185815233602082015273ffffffffffffffffffffffffffffffffffffffff87169188917fa7519e5f94697b7f53e97c5eb46a0c730a296ab686ab8fd333835c5f735784eb910160405180910390a350505092915050565b6040517f6352211e000000000000000000000000000000000000000000000000000000008152600481018790526000907f000000000000000000000000000000000000000000000000000000000000000073ffffffffffffffffffffffffffffffffffffffff1690636352211e9060240160206040518083038186803b158015610c0957600080fd5b505afa158015610c1d573d6000803e3d6000fd5b505050506040513d601f19601f82011682018060405250810190610c419190614849565b876011610c4f8383836125b9565b6040517f1837d6e3000000000000000000000000000000000000000000000000000000008152600481018b9052602481018a9052604481018990527f00000000000000000000000000000000000000000000000000000000000000006064820152600090819073ffffffffffffffffffffffffffffffffffffffff7f00000000000000000000000000000000000000000000000000000000000000001690631837d6e39060840161014060405180830381600087803b158015610d1157600080fd5b505af1158015610d25573d6000803e3d6000fd5b505050506040513d601f19601f82011682018060405250810190610d499190614a89565b9150915088811015610d87576040517fb01493c100000000000000000000000000000000000000000000000000000000815260040160405180910390fd5b6040517f6352211e000000000000000000000000000000000000000000000000000000008152600481018d9052600090819073ffffffffffffffffffffffffffffffffffffffff7f00000000000000000000000000000000000000000000000000000000000000001690636352211e9060240160206040518083038186803b158015610e1257600080fd5b505afa158015610e26573d6000803e3d6000fd5b505050506040513d601f19601f82011682018060405250810190610e4a9190614849565b90506000600354600014610e6657610e618f6127c7565b610e6c565b633b9aca005b9050633b9aca008114610e8b57610e868f868685856129d8565b610e8e565b60005b9250610e9a8385615664565b98508815610ead57610ead308c8b612b03565b5050508b826000015183602001517f8657a0c05a68a912c23c1bd00124afaa8c669063b046bd9bfd22b21d573c5e6d8b8f868c8e33604051610ef496959493929190614f8a565b60405180910390a450505050509695505050505050565b60005473ffffffffffffffffffffffffffffffffffffffff163314610f8c576040517f08c379a000000000000000000000000000000000000000000000000000000000815260206004820181905260248201527f4f776e61626c653a2063616c6c6572206973206e6f7420746865206f776e65726044820152606401610710565b600480547fffffffffffffffffffffffff00000000000000000000000000000000000000001673ffffffffffffffffffffffffffffffffffffffff83169081179091556040513381527f0a9a80fe9716605b3e52abb3d792d6a4e7816d6afc02a5a4ef023081feaf9f609060200160405180910390a250565b60005473ffffffffffffffffffffffffffffffffffffffff163314611086576040517f08c379a000000000000000000000000000000000000000000000000000000000815260206004820181905260248201527f4f776e61626c653a2063616c6c6572206973206e6f7420746865206f776e65726044820152606401610710565b6302faf0808111156110c4576040517f45fbd9c100000000000000000000000000000000000000000000000000000000815260040160405180910390fd5b6003819055604080518281523360208201527fd7414e590e1cb532989ab2a34c8f4c2c17f7ab6f006efeeaef2e87cd5008c202910160405180910390a150565b60005473ffffffffffffffffffffffffffffffffffffffff163314611185576040517f08c379a000000000000000000000000000000000000000000000000000000000815260206004820181905260248201527f4f776e61626c653a2063616c6c6572206973206e6f7420746865206f776e65726044820152606401610710565b61118f6000612b0d565b565b6040517f6e49181f0000000000000000000000000000000000000000000000000000000081526004810185905230602482015284907f000000000000000000000000000000000000000000000000000000000000000073ffffffffffffffffffffffffffffffffffffffff1690636e49181f9060440160206040518083038186803b15801561121f57600080fd5b505afa158015611233573d6000803e3d6000fd5b505050506040513d601f19601f820116820180604052508101906112579190614a33565b61128d576040517fd8ead2c800000000000000000000000000000000000000000000000000000000815260040160405180910390fd5b7f000000000000000000000000000000000000000000000000000000000000000073ffffffffffffffffffffffffffffffffffffffff1661eeee14611314573415611304576040517fbcfd35be00000000000000000000000000000000000000000000000000000000815260040160405180910390fd5b61130f333086612b03565b611318565b3493505b611359858585858080601f016020809104026020016040519081016040528093929190818152602001838380828437600092019190915250612b8292505050565b5050505050565b6040517f6352211e000000000000000000000000000000000000000000000000000000008152600481018290527f000000000000000000000000000000000000000000000000000000000000000073ffffffffffffffffffffffffffffffffffffffff1690636352211e9060240160206040518083038186803b1580156113e657600080fd5b505afa1580156113fa573d6000803e3d6000fd5b505050506040513d601f19601f8201168201806040525081019061141e9190614849565b81600561144060005473ffffffffffffffffffffffffffffffffffffffff1690565b73ffffffffffffffffffffffffffffffffffffffff163373ffffffffffffffffffffffffffffffffffffffff161461147a84848484612c87565b600085815260026020908152604080832080548251818502810185019093528083529192909190849084015b8282101561152557600084815260209081902060408051608081018252600286029092018054835260019081015463ffffffff80821685870152640100000000820416928401929092526801000000000000000090910473ffffffffffffffffffffffffffffffffffffffff16606083015290835290920191016114a6565b5050506000888152600260205260408120929350611544929150614656565b60005b81518110156115f6576115e46115c18383815181106115685761156861573e565b6020026020010151600001518484815181106115865761158661573e565b60200260200101516020015163ffffffff168585815181106115aa576115aa61573e565b60200260200101516040015163ffffffff16612ea0565b8383815181106115d3576115d361573e565b602002602001015160600151612ee6565b806115ee816156a7565b915050611547565b50857f583c8e2f1af2979852bba1986a05aaa4b7b8739333e9d97b61124be2c333d2fe8233604051611629929190615222565b60405180910390a2505050505050565b606060026000838152602001908152602001600020805480602002602001604051908101604052809291908181526020016000905b828210156116ed57600084815260209081902060408051608081018252600286029092018054835260019081015463ffffffff80821685870152640100000000820416928401929092526801000000000000000090910473ffffffffffffffffffffffffffffffffffffffff166060830152908352909201910161166e565b505050509050919050565b6040517fd49031c000000000000000000000000000000000000000000000000000000000815230600482015260248101829052600090819073ffffffffffffffffffffffffffffffffffffffff7f0000000000000000000000000000000000000000000000000000000000000000169063d49031c09060440160206040518083038186803b15801561178957600080fd5b505afa15801561179d573d6000803e3d6000fd5b505050506040513d601f19601f820116820180604052508101906117c19190614b41565b905060007f000000000000000000000000000000000000000000000000000000000000000060121461181e57611819827f0000000000000000000000000000000000000000000000000000000000000000601261312a565b611820565b815b905060017f00000000000000000000000000000000000000000000000000000000000000001461198d57611988816118797f0000000000000000000000000000000000000000000000000000000000000000600a61555f565b6040517fa4d0caf20000000000000000000000000000000000000000000000000000000081527f00000000000000000000000000000000000000000000000000000000000000006004820152600160248201527f000000000000000000000000000000000000000000000000000000000000000060448201527f000000000000000000000000000000000000000000000000000000000000000073ffffffffffffffffffffffffffffffffffffffff169063a4d0caf29060640160206040518083038186803b15801561194b57600080fd5b505afa15801561195f573d6000803e3d6000fd5b505050506040513d601f19601f820116820180604052508101906119839190614b41565b613188565b61198f565b805b949350505050565b6040517f6e49181f00000000000000000000000000000000000000000000000000000000815260048101899052306024820152600090899073ffffffffffffffffffffffffffffffffffffffff7f00000000000000000000000000000000000000000000000000000000000000001690636e49181f9060440160206040518083038186803b158015611a2857600080fd5b505afa158015611a3c573d6000803e3d6000fd5b505050506040513d601f19601f82011682018060405250810190611a609190614a33565b611a96576040517fd8ead2c800000000000000000000000000000000000000000000000000000000815260040160405180910390fd5b7f000000000000000000000000000000000000000000000000000000000000000073ffffffffffffffffffffffffffffffffffffffff1661eeee14611b1d573415611b0d576040517fbcfd35be00000000000000000000000000000000000000000000000000000000815260040160405180910390fd5b611b1833308d612b03565b611b21565b349a505b611bab8b338c8c8c8c8c8c8080601f016020809104026020016040519081016040528093929190818152602001838380828437600081840152601f19601f820116905080830192505050505050508b8b8080601f01602080910402602001604051908101604052809392919081815260200183838082843760009201919091525061328d92505050565b9b9a5050505050505050505050565b600087876002611bcb8383836125b9565b73ffffffffffffffffffffffffffffffffffffffff8716611c18576040517ff74a1b6600000000000000000000000000000000000000000000000000000000815260040160405180910390fd5b611c7d60405180610120016040528060008152602001600081526020016000815260200160008152602001600081526020016000815260200160008152602001600073ffffffffffffffffffffffffffffffffffffffff168152602001600081525090565b60007f000000000000000000000000000000000000000000000000000000000000000073ffffffffffffffffffffffffffffffffffffffff1663700dcf928e8e8e7f00000000000000000000000000000000000000000000000000000000000000007f00000000000000000000000000000000000000000000000000000000000000008e8e6040518863ffffffff1660e01b8152600401611d2497969594939291906151a8565b600060405180830381600087803b158015611d3e57600080fd5b505af1158015611d52573d6000803e3d6000fd5b505050506040513d6000823e601f3d9081017fffffffffffffffffffffffffffffffffffffffffffffffffffffffffffffffe0168201604052611d989190810190614ab8565b9a50909750909250905089861015611ddc576040517ff896960b00000000000000000000000000000000000000000000000000000000815260040160405180910390fd5b8a15611f47576040517f5dd8f6aa000000000000000000000000000000000000000000000000000000008152600481018d90527f000000000000000000000000000000000000000000000000000000000000000073ffffffffffffffffffffffffffffffffffffffff1690635dd8f6aa9060240160206040518083038186803b158015611e6857600080fd5b505afa158015611e7c573d6000803e3d6000fd5b505050506040513d601f19601f82011682018060405250810190611ea09190614849565b6040517f1665bc0f00000000000000000000000000000000000000000000000000000000815273ffffffffffffffffffffffffffffffffffffffff8f81166004830152602482018f9052604482018e905260a06064830152600060a4830181905260848301529190911690631665bc0f9060c401600060405180830381600087803b158015611f2e57600080fd5b505af1158015611f42573d6000803e3d6000fd5b505050505b73ffffffffffffffffffffffffffffffffffffffff8116156121195760006040518060e001604052808f73ffffffffffffffffffffffffffffffffffffffff1681526020018e81526020018d815260200160405180608001604052807f000000000000000000000000000000000000000000000000000000000000000073ffffffffffffffffffffffffffffffffffffffff1681526020018a81526020017f000000000000000000000000000000000000000000000000000000000000000081526020017f000000000000000000000000000000000000000000000000000000000000000081525081526020018b73ffffffffffffffffffffffffffffffffffffffff1681526020018a81526020018981525090508173ffffffffffffffffffffffffffffffffffffffff166343e1db27826040518263ffffffff1660e01b81526004016120959190615280565b600060405180830381600087803b1580156120af57600080fd5b505af11580156120c3573d6000803e3d6000fd5b505050508173ffffffffffffffffffffffffffffffffffffffff167fae50d9bddbe6ac4bc3773182fa294bce3492ee93a9d32ae21ad4f6ebb618c7f9823360405161210f929190615293565b60405180910390a2505b50841561212b5761212b308987612b03565b8a816000015182602001517fd2b8b011245528ed3c6d92b102e0cd9895bb1910613b04dd42d7c9ac3781612d8f8c8f8b8e3360405161216f96959493929190615071565b60405180910390a450505050979650505050505050565b6040517f4d9cd5ac0000000000000000000000000000000000000000000000000000000081526004810187905260248101869052604481018590527f000000000000000000000000000000000000000000000000000000000000000060648201526000908190819073ffffffffffffffffffffffffffffffffffffffff7f00000000000000000000000000000000000000000000000000000000000000001690634d9cd5ac9060840161014060405180830381600087803b15801561224a57600080fd5b505af115801561225e573d6000803e3d6000fd5b505050506040513d601f19601f820116820180604052508101906122829190614a89565b91509150858110156122c0576040517fb01493c100000000000000000000000000000000000000000000000000000000815260040160405180910390fd5b6040517f6352211e000000000000000000000000000000000000000000000000000000008152600481018a90526000907f000000000000000000000000000000000000000000000000000000000000000073ffffffffffffffffffffffffffffffffffffffff1690636352211e9060240160206040518083038186803b15801561234957600080fd5b505afa15801561235d573d6000803e3d6000fd5b505050506040513d601f19601f820116820180604052508101906123819190614849565b905060008060035460001461239e576123998c6127c7565b6123a4565b633b9aca005b90506000806123b58e888886613845565b925090506123c381836154ab565b9150633b9aca008314806123d5575081155b6123eb576123e68e888488876129d8565b6123ee565b60005b93508015612412576124038160035485612ea0565b61240d9082615664565b612415565b60005b975087156124285761242830868a612b03565b5050508a846000015185602001517f24352f49df447b14e0e08a323625c663d865ce20c343c4638af12e1dc48aa760858e88878c8f8f33604051612473989796959493929190614fe2565b60405180910390a4505050509695505050505050565b60005473ffffffffffffffffffffffffffffffffffffffff16331461250a576040517f08c379a000000000000000000000000000000000000000000000000000000000815260206004820181905260248201527f4f776e61626c653a2063616c6c6572206973206e6f7420746865206f776e65726044820152606401610710565b73ffffffffffffffffffffffffffffffffffffffff81166125ad576040517f08c379a000000000000000000000000000000000000000000000000000000000815260206004820152602660248201527f4f776e61626c653a206e6577206f776e657220697320746865207a65726f206160448201527f64647265737300000000000000000000000000000000000000000000000000006064820152608401610710565b6125b681612b0d565b50565b3373ffffffffffffffffffffffffffffffffffffffff8416148015906126af57506040517fc161c93f00000000000000000000000000000000000000000000000000000000815233600482015273ffffffffffffffffffffffffffffffffffffffff848116602483015260448201849052606482018390527f0000000000000000000000000000000000000000000000000000000000000000169063c161c93f9060840160206040518083038186803b15801561267557600080fd5b505afa158015612689573d6000803e3d6000fd5b505050506040513d601f19601f820116820180604052508101906126ad9190614a33565b155b801561278b57506040517fc161c93f00000000000000000000000000000000000000000000000000000000815233600482015273ffffffffffffffffffffffffffffffffffffffff848116602483015260006044830152606482018390527f0000000000000000000000000000000000000000000000000000000000000000169063c161c93f9060840160206040518083038186803b15801561275157600080fd5b505afa158015612765573d6000803e3d6000fd5b505050506040513d601f19601f820116820180604052508101906127899190614a33565b155b156127c2576040517f075fd2b100000000000000000000000000000000000000000000000000000000815260040160405180910390fd5b505050565b6040517f862026500000000000000000000000000000000000000000000000000000000081526001600482015273ffffffffffffffffffffffffffffffffffffffff7f00000000000000000000000000000000000000000000000000000000000000008116602483015260009182917f0000000000000000000000000000000000000000000000000000000000000000169063862026509060440160206040518083038186803b15801561287a57600080fd5b505afa15801561288e573d6000803e3d6000fd5b505050506040513d601f19601f820116820180604052508101906128b29190614849565b73ffffffffffffffffffffffffffffffffffffffff1614156128d95750633b9aca00919050565b60045473ffffffffffffffffffffffffffffffffffffffff166128fe575060006129c3565b600480546040517f7769589600000000000000000000000000000000000000000000000000000000815291820184905273ffffffffffffffffffffffffffffffffffffffff169063776958969060240160206040518083038186803b15801561296657600080fd5b505afa9250505080156129b4575060408051601f3d9081017fffffffffffffffffffffffffffffffffffffffffffffffffffffffffffffffe01682019092526129b191810190614b41565b60015b6129c0575060006129c3565b90505b633b9aca008111156129d3575060005b919050565b60006129e78460035484612ea0565b61010086015190915060421c600190811614612a0c57612a078184612ee6565b612afa565b6000868152600260208181526040808420815160808101835289815260035463ffffffff90811682860190815289821694830194855273ffffffffffffffffffffffffffffffffffffffff808c1660608501908152855460018181018855968b529790992093519690970290920194855590519390910180549251955190941668010000000000000000027fffffffff0000000000000000000000000000000000000000ffffffffffffffff958216640100000000027fffffffffffffffffffffffffffffffffffffffffffffffff0000000000000000909316939091169290921717929092169190911790555b95945050505050565b6127c282826140cc565b6000805473ffffffffffffffffffffffffffffffffffffffff8381167fffffffffffffffffffffffff0000000000000000000000000000000000000000831681178455604051919092169283917f8be0079c531659141344cd1fd0a4f28419497f9722a3daafe3b4186f6b6457e09190a35050565b6000612b8e8484614226565b905073ffffffffffffffffffffffffffffffffffffffff7f00000000000000000000000000000000000000000000000000000000000000001663e7c8e3e385612bd784876154ab565b6040517fffffffff0000000000000000000000000000000000000000000000000000000060e085901b16815260048101929092526024820152604401600060405180830381600087803b158015612c2d57600080fd5b505af1158015612c41573d6000803e3d6000fd5b50505050837f4ce42b42caaa564737146f357a8fa7fe24940fac843d392a69e23b32a1d766a3848433604051612c7993929190615332565b60405180910390a250505050565b80158015612cab57503373ffffffffffffffffffffffffffffffffffffffff851614155b8015612d8757506040517fc161c93f00000000000000000000000000000000000000000000000000000000815233600482015273ffffffffffffffffffffffffffffffffffffffff858116602483015260448201859052606482018490527f0000000000000000000000000000000000000000000000000000000000000000169063c161c93f9060840160206040518083038186803b158015612d4d57600080fd5b505afa158015612d61573d6000803e3d6000fd5b505050506040513d601f19601f82011682018060405250810190612d859190614a33565b155b8015612e6357506040517fc161c93f00000000000000000000000000000000000000000000000000000000815233600482015273ffffffffffffffffffffffffffffffffffffffff858116602483015260006044830152606482018490527f0000000000000000000000000000000000000000000000000000000000000000169063c161c93f9060840160206040518083038186803b158015612e2957600080fd5b505afa158015612e3d573d6000803e3d6000fd5b505050506040513d601f19601f82011682018060405250810190612e619190614a33565b155b15612e9a576040517f075fd2b100000000000000000000000000000000000000000000000000000000815260040160405180910390fd5b50505050565b600080612eb28484633b9aca00613188565b612ebc9085615664565b9050612ed185633b9aca0061198381856154ab565b612edb9086615664565b9150505b9392505050565b6040517f862026500000000000000000000000000000000000000000000000000000000081526001600482015273ffffffffffffffffffffffffffffffffffffffff7f0000000000000000000000000000000000000000000000000000000000000000811660248301526000917f00000000000000000000000000000000000000000000000000000000000000009091169063862026509060440160206040518083038186803b158015612f9957600080fd5b505afa158015612fad573d6000803e3d6000fd5b505050506040513d601f19601f82011682018060405250810190612fd19190614849565b905073ffffffffffffffffffffffffffffffffffffffff811630141561302157612e9a8330600185600080604051806020016040528060008152506040518060200160405280600081525061328d565b60007f000000000000000000000000000000000000000000000000000000000000000073ffffffffffffffffffffffffffffffffffffffff1661eeee1461306957600061306b565b835b60408051602081018252600080825291517fabe151b700000000000000000000000000000000000000000000000000000000815292935073ffffffffffffffffffffffffffffffffffffffff85169263abe151b79285926130d8928a926001928b92829190600401615371565b6020604051808303818588803b1580156130f157600080fd5b505af1158015613105573d6000803e3d6000fd5b50505050506040513d601f19601f820116820180604052508101906113599190614b41565b60008282141561313b575082612edf565b828211156131695761314d8383615664565b61315890600a61555f565b6131629085615627565b9050612edf565b6131738284615664565b61317e90600a61555f565b61316290856154c3565b600080807fffffffffffffffffffffffffffffffffffffffffffffffffffffffffffffffff85870985870292508281108382030391505080600014156131e1578382816131d7576131d761570f565b0492505050612edf565b838110613224576040517f773cc18c0000000000000000000000000000000000000000000000000000000081526004810182905260248101859052604401610710565b60008486880960026001871981018816978890046003810283188082028403028082028403028082028403028082028403028082028403029081029092039091026000889003889004909101858311909403939093029303949094049190911702949350505050565b600073ffffffffffffffffffffffffffffffffffffffff86166132dc576040517fa762251300000000000000000000000000000000000000000000000000000000815260040160405180910390fd5b61334160405180610120016040528060008152602001600081526020016000815260200160008152602001600081526020016000815260200160008152602001600073ffffffffffffffffffffffffffffffffffffffff168152602001600081525090565b600080600060405180608001604052807f000000000000000000000000000000000000000000000000000000000000000073ffffffffffffffffffffffffffffffffffffffff1681526020018e81526020017f000000000000000000000000000000000000000000000000000000000000000081526020017f000000000000000000000000000000000000000000000000000000000000000081525090507f000000000000000000000000000000000000000000000000000000000000000073ffffffffffffffffffffffffffffffffffffffff1663a977aefc8d838e7f00000000000000000000000000000000000000000000000000000000000000008c8c6040518763ffffffff1660e01b8152600401613462969594939291906150b5565b600060405180830381600087803b15801561347c57600080fd5b505af1158015613490573d6000803e3d6000fd5b505050506040513d6000823e601f3d9081017fffffffffffffffffffffffffffffffffffffffffffffffffffffffffffffffe01682016040526134d69190810190614ab8565b995091955090935091508115613675576040517f5dd8f6aa000000000000000000000000000000000000000000000000000000008152600481018c90527f000000000000000000000000000000000000000000000000000000000000000073ffffffffffffffffffffffffffffffffffffffff1690635dd8f6aa9060240160206040518083038186803b15801561356c57600080fd5b505afa158015613580573d6000803e3d6000fd5b505050506040513d601f19601f820116820180604052508101906135a49190614849565b6040517f8ae9c07b000000000000000000000000000000000000000000000000000000008152600481018d90526024810184905273ffffffffffffffffffffffffffffffffffffffff8c8116604483015260c06064830152600060c48301528a15156084830152600160a48301529190911690638ae9c07b9060e401602060405180830381600087803b15801561363a57600080fd5b505af115801561364e573d6000803e3d6000fd5b505050506040513d601f19601f820116820180604052508101906136729190614b41565b94505b888510156136af576040517f7b94612600000000000000000000000000000000000000000000000000000000815260040160405180910390fd5b73ffffffffffffffffffffffffffffffffffffffff8316156137eb5760006040518060e001604052808e73ffffffffffffffffffffffffffffffffffffffff1681526020018d81526020018381526020018781526020018c73ffffffffffffffffffffffffffffffffffffffff1681526020018981526020018881525090508373ffffffffffffffffffffffffffffffffffffffff1663185856a1826040518263ffffffff1660e01b8152600401613767919061525a565b600060405180830381600087803b15801561378157600080fd5b505af1158015613795573d6000803e3d6000fd5b505050508373ffffffffffffffffffffffffffffffffffffffff167f7c66059d4a9f68466678168c1c369a1532ce0c8cec8da9b0a40703d29ff1c7b382336040516137e192919061526d565b60405180910390a2505b50505087816000015182602001517f90a505d9899718702d1f8f9a21ba0bb545df8f5f70efdc5cd51b534191a304af8a8e878a33604051613830959493929190615157565b60405180910390a45098975050505050505050565b60208301516040517f69e11cc50000000000000000000000000000000000000000000000000000000081526004810186905260248101919091527f00000000000000000000000000000000000000000000000000000000000000006044820152829060009081907f000000000000000000000000000000000000000000000000000000000000000073ffffffffffffffffffffffffffffffffffffffff16906369e11cc59060640160006040518083038186803b15801561390557600080fd5b505afa158015613919573d6000803e3d6000fd5b505050506040513d6000823e601f3d9081017fffffffffffffffffffffffffffffffffffffffffffffffffffffffffffffffe016820160405261395f9190810190614920565b905060005b81518110156140c15760008282815181106139815761398161573e565b6020026020010151905060006139a0888360200151633b9aca00613188565b9050600081156140655760a083015173ffffffffffffffffffffffffffffffffffffffff1615613bac57633b9aca0088146139f1576139e2826003548a612ea0565b6139ec9083615664565b6139f3565b815b90506139ff82876154ab565b955060007f000000000000000000000000000000000000000000000000000000000000000073ffffffffffffffffffffffffffffffffffffffff1661eeee14613a49576000613a4b565b815b905060006040518060a001604052808481526020017f000000000000000000000000000000000000000000000000000000000000000081526020018e81526020017f000000000000000000000000000000000000000000000000000000000000000081526020018681525090508460a0015173ffffffffffffffffffffffffffffffffffffffff1663e7cd77f283836040518363ffffffff1660e01b8152600401613b7391908151815260208083015181830152604080840151818401526060808501518185015260809485015180511515868601529283015160a0808601919091529183015160c085015282015173ffffffffffffffffffffffffffffffffffffffff90811660e08501529382015161010084015201519091166101208201526101400190565b6000604051808303818588803b158015613b8c57600080fd5b505af1158015613ba0573d6000803e3d6000fd5b50505050505050614058565b604083015115613fd25760408084015190517f8620265000000000000000000000000000000000000000000000000000000000815260009173ffffffffffffffffffffffffffffffffffffffff7f00000000000000000000000000000000000000000000000000000000000000001691638620265091613c6f917f00000000000000000000000000000000000000000000000000000000000000009060040191825273ffffffffffffffffffffffffffffffffffffffff16602082015260400190565b60206040518083038186803b158015613c8757600080fd5b505afa158015613c9b573d6000803e3d6000fd5b505050506040513d601f19601f82011682018060405250810190613cbf9190614849565b905073ffffffffffffffffffffffffffffffffffffffff8116613d0e576040517f6921234300000000000000000000000000000000000000000000000000000000815260040160405180910390fd5b73ffffffffffffffffffffffffffffffffffffffff8116301415613db357606084015183925073ffffffffffffffffffffffffffffffffffffffff1615613d9057613d8a82308660400151876060015160008960000151604051806020016040528060008152506040518060200160405280600081525061328d565b50613fcc565b613dae84604001518360405180602001604052806000815250612b82565b613fcc565b73ffffffffffffffffffffffffffffffffffffffff811660009081526005602052604090205460ff1615613de957829150613e21565b633b9aca008914613e1057613e01836003548b612ea0565b613e0b9084615664565b613e12565b825b9150613e1e83886154ab565b96505b60007f000000000000000000000000000000000000000000000000000000000000000073ffffffffffffffffffffffffffffffffffffffff1661eeee14613e69576000613e6b565b825b606086015190915073ffffffffffffffffffffffffffffffffffffffff1615613f5a57604080860151606087015187518351602081018552600080825294517fabe151b700000000000000000000000000000000000000000000000000000000815273ffffffffffffffffffffffffffffffffffffffff88169563abe151b7958895613f02958c9592949193929091600401615371565b6020604051808303818588803b158015613f1b57600080fd5b505af1158015613f2f573d6000803e3d6000fd5b50505050506040513d601f19601f82011682018060405250810190613f549190614b41565b50613fca565b60408581015190517f84a2aacd000000000000000000000000000000000000000000000000000000008152600481019190915260248101849052606060448201526000606482015273ffffffffffffffffffffffffffffffffffffffff8316906384a2aacd908390608401613b73565b505b50614058565b633b9aca008814613ff957613fea826003548a612ea0565b613ff49083615664565b613ffb565b815b905061400782876154ab565b955061405830600073ffffffffffffffffffffffffffffffffffffffff16856060015173ffffffffffffffffffffffffffffffffffffffff16141561404c5733614052565b84606001515b83612b03565b6140628288615664565b96505b8a8a600001518b602001517fd5a0ea197eec97b08a67e43169564f3b9b9aaa22f7b3e1652c8e6417b7cf03168685336040516140a3939291906152a6565b60405180910390a450505080806140b9906156a7565b915050613964565b505094509492505050565b80471015614136576040517f08c379a000000000000000000000000000000000000000000000000000000000815260206004820152601d60248201527f416464726573733a20696e73756666696369656e742062616c616e63650000006044820152606401610710565b60008273ffffffffffffffffffffffffffffffffffffffff168260405160006040518083038185875af1925050503d8060008114614190576040519150601f19603f3d011682016040523d82523d6000602084013e614195565b606091505b50509050806127c2576040517f08c379a000000000000000000000000000000000000000000000000000000000815260206004820152603a60248201527f416464726573733a20756e61626c6520746f2073656e642076616c75652c207260448201527f6563697069656e74206d617920686176652072657665727465640000000000006064820152608401610710565b600082815260026020908152604080832080548251818502810185019093528083528493849084015b828210156142ce57600084815260209081902060408051608081018252600286029092018054835260019081015463ffffffff80821685870152640100000000820416928401929092526801000000000000000090910473ffffffffffffffffffffffffffffffffffffffff166060830152908352909201910161424f565b50505060008681526002602052604081209293506142ed929150614656565b60005b815181101561464e57836143eb57600085815260026020526040902082518390839081106143205761432061573e565b602090810291909101810151825460018181018555600094855293839020825160029092020190815591810151919092018054604084015160609094015173ffffffffffffffffffffffffffffffffffffffff1668010000000000000000027fffffffff0000000000000000000000000000000000000000ffffffffffffffff63ffffffff958616640100000000027fffffffffffffffffffffffffffffffffffffffffffffffff00000000000000009093169590941694909417179190911691909117905561463c565b8181815181106143fd576143fd61573e565b6020026020010151600001518410614498578181815181106144215761442161573e565b602002602001015160000151846144389190615664565b935061449182828151811061444f5761444f61573e565b60200260200101516000015183838151811061446d5761446d61573e565b60200260200101516020015163ffffffff168484815181106115aa576115aa61573e565b925061463c565b600260008681526020019081526020016000206040518060800160405280868585815181106144c9576144c961573e565b6020026020010151600001516144df9190615664565b81526020018484815181106144f6576144f661573e565b60200260200101516020015163ffffffff16815260200184848151811061451f5761451f61573e565b60200260200101516040015163ffffffff1681526020018484815181106145485761454861573e565b60209081029190910181015160609081015173ffffffffffffffffffffffffffffffffffffffff9081169093528454600181810187556000968752958390208551600290920201908155918401519190940180546040850151949095015190921668010000000000000000027fffffffff0000000000000000000000000000000000000000ffffffffffffffff63ffffffff948516640100000000027fffffffffffffffffffffffffffffffffffffffffffffffff000000000000000090961694909216939093179390931792909216179055815161463590859084908490811061446d5761446d61573e565b9250600093505b80614646816156a7565b9150506142f0565b505092915050565b50805460008255600202906000526020600020908101906125b691905b808211156146b157600081556001810180547fffffffff00000000000000000000000000000000000000000000000000000000169055600201614673565b5090565b60006146c86146c384615465565b615416565b90508281528383830111156146dc57600080fd5b828260208301376000602084830101529392505050565b60008083601f84011261470557600080fd5b50813567ffffffffffffffff81111561471d57600080fd5b60208301915083602082850101111561473557600080fd5b9250929050565b80516129d38161579c565b600082601f83011261475857600080fd5b612edf838335602085016146b5565b600082601f83011261477857600080fd5b81516147866146c382615465565b81815284602083860101111561479b57600080fd5b61198f82602083016020870161567b565b600061012082840312156147bf57600080fd5b6147c76153c9565b9050815181526020820151602082015260408201516040820152606082015160608201526080820151608082015260a082015160a082015260c082015160c082015261481560e0830161473c565b60e082015261010080830151818301525092915050565b60006020828403121561483e57600080fd5b8135612edf8161579c565b60006020828403121561485b57600080fd5b8151612edf8161579c565b600080600080600080600060e0888a03121561488157600080fd5b873561488c8161579c565b965060208801359550604088013594506060880135935060808801356148b18161579c565b925060a088013567ffffffffffffffff808211156148ce57600080fd5b6148da8b838c01614747565b935060c08a01359150808211156148f057600080fd5b508801601f81018a1361490257600080fd5b6149118a8235602084016146b5565b91505092959891949750929550565b6000602080838503121561493357600080fd5b825167ffffffffffffffff8082111561494b57600080fd5b818501915085601f83011261495f57600080fd5b8151818111156149715761497161576d565b61497f848260051b01615416565b818152848101925083850160c0808402860187018a101561499f57600080fd5b60009550855b84811015614a245781838c0312156149bb578687fd5b6149c36153f3565b83516149ce816157be565b81528389015189820152604080850151908201526060808501516149f18161579c565b908201526080848101519082015260a080850151614a0e8161579c565b90820152865294870194918101916001016149a5565b50919998505050505050505050565b600060208284031215614a4557600080fd5b8151612edf816157be565b60008060408385031215614a6357600080fd5b8235614a6e8161579c565b91506020830135614a7e816157be565b809150509250929050565b6000806101408385031215614a9d57600080fd5b614aa784846147ac565b915061012083015190509250929050565b6000806000806101808587031215614acf57600080fd5b614ad986866147ac565b93506101208501519250610140850151614af28161579c565b61016086015190925067ffffffffffffffff811115614b1057600080fd5b614b1c87828801614767565b91505092959194509250565b600060208284031215614b3a57600080fd5b5035919050565b600060208284031215614b5357600080fd5b5051919050565b60008060408385031215614b6d57600080fd5b823591506020830135614a7e8161579c565b600080600080600080600080600060e08a8c031215614b9d57600080fd5b8935985060208a0135975060408a0135614bb68161579c565b965060608a0135955060808a0135614bcd816157be565b945060a08a013567ffffffffffffffff80821115614bea57600080fd5b614bf68d838e016146f3565b909650945060c08c0135915080821115614c0f57600080fd5b50614c1c8c828d016146f3565b915080935050809150509295985092959850929598565b60008060008060608587031215614c4957600080fd5b8435935060208501359250604085013567ffffffffffffffff811115614c6e57600080fd5b614c7a878288016146f3565b95989497509550505050565b60008060008060008060c08789031215614c9f57600080fd5b863595506020870135945060408701359350606087013592506080870135614cc68161579c565b915060a087013567ffffffffffffffff811115614ce257600080fd5b614cee89828a01614747565b9150509295509295509295565b60008060008060008060a08789031215614d1457600080fd5b86359550602087013594506040870135935060608701359250608087013567ffffffffffffffff811115614d4757600080fd5b614d5389828a016146f3565b979a9699509497509295939492505050565b600081518084526020808501945080840160005b83811015614dd6578151805188528381015163ffffffff908116858a01526040808301519091169089015260609081015173ffffffffffffffffffffffffffffffffffffffff169088015260809096019590820190600101614d79565b509495945050505050565b60008151808452614df981602086016020860161567b565b601f017fffffffffffffffffffffffffffffffffffffffffffffffffffffffffffffffe0169290920160200192915050565b600061014073ffffffffffffffffffffffffffffffffffffffff808451168552602084015160208601526040840151614e9e604087018273ffffffffffffffffffffffffffffffffffffffff81511682526020810151602083015260408101516040830152606081015160608301525050565b50606084015160c086015260808401511660e085015260a08301516101008501829052614ecd82860182614de1565b91505060c0830151848203610120860152612afa8282614de1565b600061014073ffffffffffffffffffffffffffffffffffffffff80845116855260208401516020860152604084015160408601526060840151614f65606087018273ffffffffffffffffffffffffffffffffffffffff81511682526020810151602083015260408101516040830152606081015160608301525050565b5060808401511660e085015260a08301516101008501829052614ecd82860182614de1565b600073ffffffffffffffffffffffffffffffffffffffff808916835287602084015286604084015285606084015260c06080840152614fcc60c0840186614de1565b915080841660a084015250979650505050505050565b600073ffffffffffffffffffffffffffffffffffffffff808b16835289602084015288604084015287606084015286608084015260e060a08401528460e08401526101008587828601376000848701820152931660c083015250601f9092017fffffffffffffffffffffffffffffffffffffffffffffffffffffffffffffffe016909101019695505050505050565b600073ffffffffffffffffffffffffffffffffffffffff8089168352808816602084015286604084015285606084015260c06080840152614fcc60c0840186614de1565b600061012073ffffffffffffffffffffffffffffffffffffffff89168352615117602084018973ffffffffffffffffffffffffffffffffffffffff81511682526020810151602083015260408101516040830152606081015160608301525050565b8660a08401528560c08401528060e084015261513581840186614de1565b905082810361010084015261514a8185614de1565b9998505050505050505050565b600073ffffffffffffffffffffffffffffffffffffffff808816835286602084015285604084015260a0606084015261519360a0840186614de1565b91508084166080840152509695505050505050565b73ffffffffffffffffffffffffffffffffffffffff8816815286602082015285604082015284606082015283608082015260e060a082015260006151ef60e0830185614de1565b82810360c08401526152018185614de1565b9a9950505050505050505050565b602081526000612edf6020830184614d65565b6040815260006152356040830185614d65565b905073ffffffffffffffffffffffffffffffffffffffff831660208301529392505050565b602081526000612edf6020830184614e2b565b6040815260006152356040830185614e2b565b602081526000612edf6020830184614ee8565b6040815260006152356040830185614ee8565b610100810161530882868051151582526020810151602083015260408101516040830152606081015173ffffffffffffffffffffffffffffffffffffffff8082166060850152608083015160808501528060a08401511660a085015250505050565b8360c083015273ffffffffffffffffffffffffffffffffffffffff831660e0830152949350505050565b83815260606020820152600061534b6060830185614de1565b905073ffffffffffffffffffffffffffffffffffffffff83166040830152949350505050565b86815285602082015273ffffffffffffffffffffffffffffffffffffffff85166040820152836060820152821515608082015260e060a0820152600060e082015260006101008060c084015261514a81840185614de1565b604051610120810167ffffffffffffffff811182821017156153ed576153ed61576d565b60405290565b60405160c0810167ffffffffffffffff811182821017156153ed576153ed61576d565b604051601f82017fffffffffffffffffffffffffffffffffffffffffffffffffffffffffffffffe016810167ffffffffffffffff8111828210171561545d5761545d61576d565b604052919050565b600067ffffffffffffffff82111561547f5761547f61576d565b50601f017fffffffffffffffffffffffffffffffffffffffffffffffffffffffffffffffe01660200190565b600082198211156154be576154be6156e0565b500190565b6000826154f9577f4e487b7100000000000000000000000000000000000000000000000000000000600052601260045260246000fd5b500490565b600181815b8085111561555757817fffffffffffffffffffffffffffffffffffffffffffffffffffffffffffffffff0482111561553d5761553d6156e0565b8085161561554a57918102915b93841c9390800290615503565b509250929050565b6000612edf838360008261557557506001615621565b8161558257506000615621565b816001811461559857600281146155a2576155be565b6001915050615621565b60ff8411156155b3576155b36156e0565b50506001821b615621565b5060208310610133831016604e8410600b84101617156155e1575081810a615621565b6155eb83836154fe565b807fffffffffffffffffffffffffffffffffffffffffffffffffffffffffffffffff0482111561561d5761561d6156e0565b0290505b92915050565b6000817fffffffffffffffffffffffffffffffffffffffffffffffffffffffffffffffff048311821515161561565f5761565f6156e0565b500290565b600082821015615676576156766156e0565b500390565b60005b8381101561569657818101518382015260200161567e565b83811115612e9a5750506000910152565b60007fffffffffffffffffffffffffffffffffffffffffffffffffffffffffffffffff8214156156d9576156d96156e0565b5060010190565b7f4e487b7100000000000000000000000000000000000000000000000000000000600052601160045260246000fd5b7f4e487b7100000000000000000000000000000000000000000000000000000000600052601260045260246000fd5b7f4e487b7100000000000000000000000000000000000000000000000000000000600052603260045260246000fd5b7f4e487b7100000000000000000000000000000000000000000000000000000000600052604160045260246000fd5b73ffffffffffffffffffffffffffffffffffffffff811681146125b657600080fd5b80151581146125b657600080fdfea2646970667358221220cb615b478cad93e5c8ebee082408014eb2f89bb1111d166bc61d4eec65285be164736f6c63430008060033",
  "devdoc": {
    "details": "Inherits from: JBPayoutRedemptionPaymentTerminal: Generic terminal managing all inflows and outflows of funds into the protocol ecosystem.",
    "kind": "dev",
    "methods": {
      "addToBalanceOf(uint256,uint256,string)": {
        "params": {
          "_amount": "The amount of tokens to add, as a fixed point number with the same number of decimals as this terminal. If this is an ETH terminal, this is ignored and msg.value is used instead.",
          "_memo": "A memo to pass along to the emitted event.",
          "_projectId": "The ID of the project to which the funds received belong."
        }
      },
      "currentEthOverflowOf(uint256)": {
        "details": "The current overflow is represented as a fixed point number with 18 decimals.",
        "params": {
          "_projectId": "The ID of the project to get overflow for."
        },
        "returns": {
          "_0": "The current amount of ETH overflow that project has in this terminal, as a fixed point number with 18 decimals."
        }
      },
      "distributePayoutsOf(uint256,uint256,uint256,uint256,string)": {
        "details": "Payouts are sent to the preprogrammed splits. Any leftover is sent to the project's owner.Anyone can distribute payouts on a project's behalf. The project can preconfigure a wildcard split that is used to send funds to msg.sender. This can be used to incentivize calling this function.All funds distributed outside of this contract or any feeless terminals incure the protocol fee.",
        "params": {
          "_amount": "The amount of terminal tokens to distribute, as a fixed point number with same number of decimals as this terminal.",
          "_currency": "The expected currency of the amount being distributed. Must match the project's current funding cycle's distribution limit currency.",
          "_memo": "A memo to pass along to the emitted event.",
          "_minReturnedTokens": "The minimum number of terminal tokens that the `_amount` should be valued at in terms of this terminal's currency, as a fixed point number with the same number of decimals as this terminal.",
          "_projectId": "The ID of the project having its payouts distributed."
        },
        "returns": {
          "netLeftoverDistributionAmount": "The amount that was sent to the project owner, as a fixed point number with the same amount of decimals as this terminal."
        }
      },
      "heldFeesOf(uint256)": {
        "params": {
          "_projectId": "The ID of the project for which fees are being held."
        },
        "returns": {
          "_0": "An array of fees that are being held."
        }
      },
      "migrate(uint256,address)": {
        "details": "Only a project's owner or a designated operator can migrate it.",
        "params": {
          "_projectId": "The ID of the project being migrated.",
          "_to": "The terminal contract that will gain the project's funds."
        },
        "returns": {
          "balance": "The amount of funds that were migrated, as a fixed point number with the same amount of decimals as this terminal."
        }
      },
      "owner()": {
        "details": "Returns the address of the current owner."
      },
      "pay(uint256,uint256,address,uint256,bool,string,bytes)": {
        "params": {
          "_amount": "The amount of terminal tokens being received, as a fixed point number with the same amount of decimals as this terminal. If this terminal's token is ETH, this is ignored and msg.value is used in its place.",
          "_beneficiary": "The address to mint tokens for and pass along to the funding cycle's delegate.",
          "_memo": "A memo to pass along to the emitted event, and passed along the the funding cycle's data source and delegate.  A data source can alter the memo before emitting in the event and forwarding to the delegate.",
          "_metadata": "Bytes to send along to the data source and delegate, if provided.",
          "_minReturnedTokens": "The minimum number of project tokens expected in return, as a fixed point number with the same amount of decimals as this terminal.",
          "_preferClaimedTokens": "A flag indicating whether the request prefers to mint project tokens into the beneficiaries wallet rather than leaving them unclaimed. This is only possible if the project has an attached token contract. Leaving them unclaimed saves gas.",
          "_projectId": "The ID of the project being paid."
        },
        "returns": {
          "_0": "The number of tokens minted for the beneficiary, as a fixed point number with 18 decimals."
        }
      },
      "processFees(uint256)": {
        "details": "Only a project owner, an operator, or the contract's owner can process held fees.",
        "params": {
          "_projectId": "The ID of the project whos held fees should be processed."
        }
      },
      "redeemTokensOf(address,uint256,uint256,uint256,address,string,bytes)": {
        "details": "Only a token holder or a designated operator can redeem its tokens.",
        "params": {
          "_beneficiary": "The address to send the terminal tokens to.",
          "_holder": "The account to redeem tokens for.",
          "_memo": "A memo to pass along to the emitted event.",
          "_metadata": "Bytes to send along to the data source and delegate, if provided.",
          "_minReturnedTokens": "The minimum amount of terminal tokens expected in return, as a fixed point number with the same amount of decimals as the terminal.",
          "_projectId": "The ID of the project to which the tokens being redeemed belong.",
          "_tokenCount": "The number of project tokens to redeem, as a fixed point number with 18 decimals."
        },
        "returns": {
          "reclaimAmount": "The amount of terminal tokens that the project tokens were redeemed for, as a fixed point number with 18 decimals."
        }
      },
      "renounceOwnership()": {
        "details": "Leaves the contract without owner. It will not be possible to call `onlyOwner` functions anymore. Can only be called by the current owner. NOTE: Renouncing ownership will leave the contract without an owner, thereby removing any functionality that is only available to the owner."
      },
      "setFee(uint256)": {
        "details": "Only the owner of this contract can change the fee.",
        "params": {
          "_fee": "The new fee, out of MAX_FEE."
        }
      },
      "setFeeGauge(address)": {
        "details": "Only the owner of this contract can change the fee gauge.If the fee gauge reverts when called upon while a project is attempting to distribute its funds, a project's funds will be locked. This is a known risk.",
        "params": {
          "_feeGauge": "The new fee gauge."
        }
      },
      "setFeelessTerminal(address,bool)": {
        "details": "Only the owner of this contract can set terminal's as feeless.",
        "params": {
          "_flag": "A flag indicating whether the terminal should be feeless or not.",
          "_terminal": "The terminal that can be paid towards while still bypassing fees."
        }
      },
      "transferOwnership(address)": {
        "details": "Transfers ownership of the contract to a new account (`newOwner`). Can only be called by the current owner."
      },
      "useAllowanceOf(uint256,uint256,uint256,uint256,address,string)": {
        "details": "Only a project's owner or a designated operator can use its allowance.Incurs the protocol fee.",
        "params": {
          "_amount": "The amount of terminal tokens to use from this project's current allowance, as a fixed point number with the same amount of decimals as this terminal.",
          "_beneficiary": "The address to send the funds to.",
          "_currency": "The expected currency of the amount being distributed. Must match the project's current funding cycle's overflow allowance currency.",
          "_memo": "A memo to pass along to the emitted event.",
          "_minReturnedTokens": "The minimum number of tokens that the `_amount` should be valued at in terms of this terminal's currency, as a fixed point number with 18 decimals.",
          "_projectId": "The ID of the project to use the allowance of."
        },
        "returns": {
          "netDistributedAmount": "The amount of tokens that was distributed to the beneficiary, as a fixed point number with the same amount of decimals as the terminal."
        }
      }
    },
    "version": 1
  },
  "userdoc": {
    "errors": {
      "PRBMath__MulDivOverflow(uint256,uint256)": [
        {
          "notice": "Emitted when the result overflows uint256."
        }
      ]
    },
    "kind": "user",
    "methods": {
      "addToBalanceOf(uint256,uint256,string)": {
        "notice": "Receives funds belonging to the specified project."
      },
      "baseWeightCurrency()": {
        "notice": "The currency to base token issuance on."
      },
      "currency()": {
        "notice": "The currency to use when resolving price feeds for this terminal."
      },
      "currentEthOverflowOf(uint256)": {
        "notice": "Gets the current overflowed amount in this terminal for a specified project, in terms of ETH."
      },
      "decimals()": {
        "notice": "The number of decimals the token fixed point amounts are expected to have."
      },
      "directory()": {
        "notice": "The directory of terminals and controllers for projects."
      },
      "distributePayoutsOf(uint256,uint256,uint256,uint256,string)": {
        "notice": "Distributes payouts for a project with the distribution limit of its current funding cycle."
      },
      "fee()": {
        "notice": "The platform fee percent."
      },
      "feeGauge()": {
        "notice": "The data source that returns a discount to apply to a project's fee."
      },
      "heldFeesOf(uint256)": {
        "notice": "The fees that are currently being held to be processed later for each project."
      },
      "isFeelessTerminal(address)": {
        "notice": "Terminals that can be paid towards from this terminal without incurring a fee. _terminal The terminal that can be paid toward."
      },
      "migrate(uint256,address)": {
        "notice": "Allows a project owner to migrate its funds and operations to a new terminal of the same token type."
      },
      "operatorStore()": {
        "notice": " A contract storing operator assignments."
      },
      "pay(uint256,uint256,address,uint256,bool,string,bytes)": {
        "notice": "Contribute tokens to a project."
      },
      "payoutSplitsGroup()": {
        "notice": "The group that payout splits coming from this terminal are identified by."
      },
      "prices()": {
        "notice": "The contract that exposes price feeds."
      },
      "processFees(uint256)": {
        "notice": "Process any fees that are being held for the project."
      },
      "projects()": {
        "notice": "The Projects contract which mints ERC-721's that represent project ownership and transfers."
      },
      "redeemTokensOf(address,uint256,uint256,uint256,address,string,bytes)": {
        "notice": "Holders can redeem their tokens to claim the project's overflowed tokens, or to trigger rules determined by the project's current funding cycle's data source."
      },
      "setFee(uint256)": {
        "notice": "Allows the fee to be updated."
      },
      "setFeeGauge(address)": {
        "notice": "Allows the fee gauge to be updated."
      },
      "setFeelessTerminal(address,bool)": {
        "notice": "Sets whether projects operating on this terminal can pay projects operating on the specified terminal without incurring a fee."
      },
      "splitsStore()": {
        "notice": "The contract that stores splits for each project."
      },
      "store()": {
        "notice": "The contract that stores and manages the terminal's data."
      },
      "token()": {
        "notice": "The token that this terminal accepts."
      },
      "useAllowanceOf(uint256,uint256,uint256,uint256,address,string)": {
        "notice": "Allows a project to send funds from its overflow up to the preconfigured allowance."
      }
    },
    "notice": "Manages all inflows and outflows of ETH funds into the protocol ecosystem.",
    "version": 1
  },
  "storageLayout": {
    "storage": [
      {
        "astId": 53,
        "contract": "contracts/JBETHPaymentTerminal.sol:JBETHPaymentTerminal",
        "label": "_owner",
        "offset": 0,
        "slot": "0",
        "type": "t_address"
      },
      {
        "astId": 693,
        "contract": "contracts/JBETHPaymentTerminal.sol:JBETHPaymentTerminal",
        "label": "_status",
        "offset": 0,
        "slot": "1",
        "type": "t_uint256"
      },
      {
        "astId": 12710,
        "contract": "contracts/JBETHPaymentTerminal.sol:JBETHPaymentTerminal",
        "label": "_heldFeesOf",
        "offset": 0,
        "slot": "2",
        "type": "t_mapping(t_uint256,t_array(t_struct(JBFee)17540_storage)dyn_storage)"
      },
      {
        "astId": 12760,
        "contract": "contracts/JBETHPaymentTerminal.sol:JBETHPaymentTerminal",
        "label": "fee",
        "offset": 0,
        "slot": "3",
        "type": "t_uint256"
      },
      {
        "astId": 12765,
        "contract": "contracts/JBETHPaymentTerminal.sol:JBETHPaymentTerminal",
        "label": "feeGauge",
        "offset": 0,
        "slot": "4",
        "type": "t_contract(IJBFeeGauge)15249"
      },
      {
        "astId": 12772,
        "contract": "contracts/JBETHPaymentTerminal.sol:JBETHPaymentTerminal",
        "label": "isFeelessTerminal",
        "offset": 0,
        "slot": "5",
        "type": "t_mapping(t_contract(IJBPaymentTerminal)15529,t_bool)"
      }
    ],
    "types": {
      "t_address": {
        "encoding": "inplace",
        "label": "address",
        "numberOfBytes": "20"
      },
      "t_array(t_struct(JBFee)17540_storage)dyn_storage": {
        "base": "t_struct(JBFee)17540_storage",
        "encoding": "dynamic_array",
        "label": "struct JBFee[]",
        "numberOfBytes": "32"
      },
      "t_bool": {
        "encoding": "inplace",
        "label": "bool",
        "numberOfBytes": "1"
      },
      "t_contract(IJBFeeGauge)15249": {
        "encoding": "inplace",
        "label": "contract IJBFeeGauge",
        "numberOfBytes": "20"
      },
      "t_contract(IJBPaymentTerminal)15529": {
        "encoding": "inplace",
        "label": "contract IJBPaymentTerminal",
        "numberOfBytes": "20"
      },
      "t_mapping(t_contract(IJBPaymentTerminal)15529,t_bool)": {
        "encoding": "mapping",
        "key": "t_contract(IJBPaymentTerminal)15529",
        "label": "mapping(contract IJBPaymentTerminal => bool)",
        "numberOfBytes": "32",
        "value": "t_bool"
      },
      "t_mapping(t_uint256,t_array(t_struct(JBFee)17540_storage)dyn_storage)": {
        "encoding": "mapping",
        "key": "t_uint256",
        "label": "mapping(uint256 => struct JBFee[])",
        "numberOfBytes": "32",
        "value": "t_array(t_struct(JBFee)17540_storage)dyn_storage"
      },
      "t_struct(JBFee)17540_storage": {
        "encoding": "inplace",
        "label": "struct JBFee",
        "members": [
          {
            "astId": 17533,
            "contract": "contracts/JBETHPaymentTerminal.sol:JBETHPaymentTerminal",
            "label": "amount",
            "offset": 0,
            "slot": "0",
            "type": "t_uint256"
          },
          {
            "astId": 17535,
            "contract": "contracts/JBETHPaymentTerminal.sol:JBETHPaymentTerminal",
            "label": "fee",
            "offset": 0,
            "slot": "1",
            "type": "t_uint32"
          },
          {
            "astId": 17537,
            "contract": "contracts/JBETHPaymentTerminal.sol:JBETHPaymentTerminal",
            "label": "feeDiscount",
            "offset": 4,
            "slot": "1",
            "type": "t_uint32"
          },
          {
            "astId": 17539,
            "contract": "contracts/JBETHPaymentTerminal.sol:JBETHPaymentTerminal",
            "label": "beneficiary",
            "offset": 8,
            "slot": "1",
            "type": "t_address"
          }
        ],
        "numberOfBytes": "64"
      },
      "t_uint256": {
        "encoding": "inplace",
        "label": "uint256",
        "numberOfBytes": "32"
      },
      "t_uint32": {
        "encoding": "inplace",
        "label": "uint32",
        "numberOfBytes": "4"
      }
    }
  }
}